S00A000033322E73726563B5
S11300000C942A000C943F000C943F000C943F0085
S11300100C943F000C943F000C943F000C943F0060
S11300200C943F000C943F000C943F000C943F0050
S11300300C943F000C943F000C943F000C943F0040
S11300400C943F000C943F000C943F000C943F0030
S11300500C943F0011241FBECFE5D8E0DEBFCDBF16
S113006010E0A0E6B0E0E6EBF7E002C005900D92E8
S1130070A637B107D9F70E9497000C94D9030C94C2
S113008000008DEF80B984E086BF11B8089594EA2A
S113009096BF06B607FEFDCF91B1987F983039F42C
S11300A083B984E886BF06B607FEFDCF81B1089503
S11300B084E986BF06B604FCFDCF089583B984E8BD
S11300C086BF06B607FEFDCF81B1089584E886BFDA
S11300D006B607FEFDCF83B1089594EA96BF06B62F
S11300E007FEFDCF91B1987F903139F483B984E84C
S11300F086BF06B607FEFDCF81B1089510BC8CE023
S113010089B988E18AB986E880BD08955D9BFECFF0
S11301108CB90895CF93DF93EC0103C021960E941C
S1130120860088818111FACFDF91CF910895CF9312
S1130130DF93CDB7DEB764970FB6F894DEBF0FBE7A
S1130140CDBF0E947E0080E690E00E948A002FE9E5
S113015086E891E0215080409040E1F700C0000023
S11301600E94410087EA91E60197F1F700C0000080
S11301708AE90E94470080E00E945E008BE90E94A9
S11301806D000E946600182F0E9458009FE728E324
S113019081E0915020408040E1F700C000001F92B0
S11301A01F9389E690E09F938F938E010F5F1F4FFB
S11301B01F930F930E94EF00C8010E948A009FE3DF
S11301C02DE083E0915020408040E1F700C0000022
S11301D00F900F900F900F900F900F90C9CFAEE03B
S11301E0B0E0E5EFF0E00C94B0030D891E8986E0E1
S11301F08C831A8309838FEF9FE79E838D83AE01DF
S1130200475E5F4F6F89788DCE0101960E94110180
S1130210EF81F885E00FF11F10822E96E4E00C9434
S1130220CC03ABE0B0E0E7E1F1E00C94A2036C0195
S11302307B018A01FC0117821682838181FFCCC174
S1130240CE0101963C01F6019381F70193FD85915E
S113025093FF81917F01882309F4BAC1853239F46F
S113026093FD859193FF81917F01853229F4B60135
S113027090E00E940803E7CF912C212C312CFFE160
S1130280F315D8F08B3279F038F4803279F0833278
S1130290A1F4232D20611DC08D3261F0803369F4F7
S11302A0232D216016C0832D8260382EE32DE46057
S11302B03E2E2AC0F32DF8601DC037FC2DC020ED62
S11302C0280F2A3040F08E32B9F436FC81C1232D38
S11302D02064322E19C036FE06C08AE0989E200D96
S11302E01124922E11C0EAE02E9E200D1124222EFC
S11302F0F32DF0623F2E08C08C3621F4832D8068E4
S1130300382E02C0883641F4F70193FD859193FF9E
S113031081917F018111B3CF982F9F7D95549330A4
S113032028F40C5F1F4F9FE399830DC0833631F08F
S1130330833771F0833509F059C021C0F8018081F9
S113034089830E5F1F4F88248394912C530113C01B
S11303502801F2E04F0E511CF801A080B18036FE56
S113036003C0692D70E002C06FEF7FEFC5010E94EA
S1130370FD024C018201F32DFF773F2E16C02801A8
S113038022E0420E511CF801A080B18036FE03C069
S1130390692D70E002C06FEF7FEFC5010E94F20289
S11303A04C01F32DF0683F2E820133FC1BC0822DDB
S11303B090E088169906B0F4B60180E290E00E94BD
S11303C008032A94F4CFF50137FC859137FE819117
S11303D05F01B60190E00E94080321102A9421E0F5
S11303E0821A91088114910471F7E8C0843611F0DF
S11303F0893641F5F80137FE07C060817181828139
S113040093810C5F1F4F08C060817181072E000C1F
S1130410880B990B0E5F1F4FF32DFF763F2E97FF2E
S113042009C090958095709561957F4F8F4F9F4F30
S1130430F0683F2E2AE030E0A3010E944403882E96
S1130440861845C0853731F4232D2F7EB22E2AE03D
S113045030E025C0932D997FB92E8F36C1F018F462
S1130460883579F0B5C0803719F0883721F0B0C0ED
S1130470E92FE061BE2EB4FE0DC0FB2DF460BF2E4B
S113048009C034FE0AC0292F2660B22E06C028E017
S113049030E005C020E130E002C020E132E0F801A4
S11304A0B7FE07C060817181828193810C5F1F4F09
S11304B006C06081718180E090E00E5F1F4FA30150
S11304C00E944403882E8618FB2DFF773F2E36FEAC
S11304D00DC0232D2E7FA22E891458F434FE0BC098
S11304E032FC09C0832D8E7EA82E05C0B82CA32C07
S11304F003C0B82C01C0B92CA4FE0FC0FE01E80D46
S1130500F11D8081803321F49A2D997EA92E09C092
S1130510A2FE06C0B394B39404C08A2D867809F071
S1130520B394A3FC11C0A0FE06C0B21488F4280C36
S1130530922C9B180EC0B21460F4B60180E290E0D5
S11305400E940803B394F7CFB21418F42B1802C016
S1130550982C212CA4FE10C0B60180E390E00E94E8
S11305600803A2FE17C0A1FC03C088E790E002C004
S113057088E590E0B6010CC08A2D867859F0A1FE7A
S113058002C08BE201C080E2A7FC8DE2B60190E0DC
S11305900E940803891438F4B60180E390E00E94B5
S11305A008039A94F7CF8A94F301E80DF11D808132
S11305B0B60190E00E9408038110F5CF222009F4CF
S11305C042CEB60180E290E00E9408032A94F6CF5E
S11305D0F6018681978102C08FEF9FEF2B96E2E1AF
S11305E00C94BE03FC010590615070400110D8F7D3
S11305F0809590958E0F9F1F0895FC016150704067
S113060001900110D8F7809590958E0F9F1F089543
S11306100F931F93CF93DF93FB01238121FD03C02D
S11306208FEF9FEF2CC022FF16C046815781248193
S113063035814217530744F4A081B1819D012F5F96
S11306403F4F318320838C93268137812F5F3F4F27
S11306503783268314C08B01EC01FB010084F185F0
S1130660E02D0995892BE1F6D80116968D919C9180
S11306701797019617969C938E931697CE01DF9148
S1130680CF911F910F910895FA01AA27283051F1B3
S1130690203181F1E8946F936E7F6E5F7F4F8F4FAF
S11306A09F4FAF4FB1E03ED0B4E03CD0670F781F0E
S11306B0891F9A1FA11D680F791F8A1F911DA11DF3
S11306C06A0F711D811D911DA11D20D009F468942C
S11306D03F912AE0269F11243019305D3193DEF6D4
S11306E0CF010895462F4770405D4193B3E00FD08A
S11306F0C9F7F6CF462F4F70405D4A3318F0495D75
S113070031FD4052419302D0A9F7EACFB4E0A69557
S11307109795879577956795BA95C9F70097610579
S1130720710508959B01AC010A2E069457954795CF
S113073037952795BA95C9F7620F731F841F951FC4
S1130740A01D08952F923F924F925F926F927F92D5
S11307508F929F92AF92BF92CF92DF92EF92FF92CD
S11307600F931F93CF93DF93CDB7DEB7CA1BDB0B79
S11307700FB6F894DEBF0FBECDBF09942A8839881E
S113078048885F846E847D848C849B84AA84B98425
S1130790C884DF80EE80FD800C811B81AA81B98131
S11307A0CE0FD11D0FB6F894DEBF0FBECDBFED0145
S10907B00895F894FFCF48
S11307B648656C6C6F200D0A0054656D703A2025EF
S10907C66420430D0A004B
S9030000FC
